:100000000C9446000C9465000C9465000C946500FB
:100010000C9465000C9465000C9465000C946500CC
:100020000C9465000C9465000C9465000C946500BC
:100030000C9465000C9465000C9465000C946500AC
:100040000C9465000C9465000C9465000C9465009C
:100050000C9465000C9465000C9465000C9465008C
:100060000C9465000C9465000C9465000C9465007C
:100070000C9465000C9465000C9465000C9465006C
:100080000C9465000C9465000C94650011241FBE4F
:10009000CFEFD0E4DEBFCDBF11E0A0E0B1E0E0ECF7
:1000A000F3E000E00BBF02C007900D92AE30B10745
:1000B000D9F711E0AEE0B1E001C01D92A031B10767
:1000C000E1F70E9490000C94DE010C940000CF93A5
:1000D000DF9300D01F92CDB7DEB789837B836A831D
:1000E00089818A3031F48A819B81BC018DE00E9434
:1000F000670080EC90E0FC018081882F90E08072A6
:1001000099270097B1F386EC90E02981FC012083C8
:1001100080E090E00F900F900F90DF91CF910895C5
:10012000CF93DF93CDB7DEB781E290E0FC01108280
:1001300082E290E02FEFFC01208387E290E02FEF36
:10014000FC01208388E290E027E0FC0120831092EC
:100150000F0110920E010E94AE00FDCFCF93DF93EE
:10016000CDB7DEB780910E0190910F0182309105DD
:1001700009F45EC08330910530F4009789F0813036
:100180009105D1F0BEC08430910509F48FC0843050
:10019000910508F484C08530910509F48EC0B1C082
:1001A00088E290E027E0FC01208381E090E09093DA
:1001B0000F0180930E01AAC080E290E0FC018081D3
:1001C000882F90E081709927009739F083E090E0C4
:1001D00090930F0180930E012AC080E290E0FC0111
:1001E0008081882F90E082709927009739F084E011
:1001F00090E090930F0180930E0119C080E290E08F
:10020000FC018081882F90E08370992783309105CD
:1002100039F485E090E090930F0180930E0107C0C0
:1002200081E090E090930F0180930E016FC06EC04B
:1002300080E290E0FC018081882F90E08370992714
:100240008130910559F080E290E0FC018081882F97
:1002500090E0837099278230910539F482E090E034
:1002600090930F0180930E0119C080E290E0FC0191
:100270008081882F90E0837099278330910539F42D
:1002800085E090E090930F0180930E0107C081E01C
:1002900090E090930F0180930E0138C037C082E048
:1002A00090E090930F0180930E0130C082E090E0C7
:1002B00090930F0180930E0129C080E290E0FC0131
:1002C0008081882F90E0837099278130910559F0C3
:1002D00080E290E0FC018081882F90E08370992774
:1002E0008230910539F485E090E090930F0180937E
:1002F0000E010CC081E090E090930F0180930E01FD
:1003000005C010920F0110920E01000080910E01A5
:1003100090910F018230910509F44AC08330910514
:1003200038F4009779F08130910509F443C043C057
:100330008430910519F18430910550F08530910594
:1003400091F139C088E290E027E0FC01208333C0BE
:1003500088E290E0FC018081893030F088E290E012
:1003600029E0FC01208327C088E290E028E230E009
:10037000F90120812F5FFC0120831DC088E290E0FD
:10038000FC018081882329F488E290E0FC0110823E
:1003900012C088E290E028E230E0F901208121508B
:1003A000FC01208308C088E290E0FC01108203C0B9
:1003B000000001C00000DF91CF910895F894FFCFB5
:0E03C0000000000200000000670000000000C6
:00000001FF
